:02000002B0004C
:1040000000400B00BC9D0B00000006000C000502E8
:084010000401E50C00000000B2
:04401800A4870B006E
:10401C0009480A49884208B505D0094A824202D0AB
:10402C00121A04F05DFA0748074A0021121A04F02C
:10403C0065FA014808BD00BF10E50320289D0B0060
:10404C007CE503207CE50320EDE7032070B5074EEB
:10405C00074C03F03FFAA41BA4080025AC4200D186
:10406C0070BD56F8043B98470135F7E7DC9C0B0014
:10407C00009D0B0000F078BD08B500F059FCBDE8C0
:10408C00084003F0DFB902F0C7BE02F0C5BE02F073
:10409C00CBBE02F0C9BE000008B5034A03490C2090
:1040AC0002F006FEFEE700BFAD690B00B8870B00FF
:1040BC000078B0FA80F04009704701230370704714
:1040CC00F0B502F1080385B023F0070300AFADEBA8
:1040DC00030D1446684604F003FA0023694638467B
:1040EC000DF8043003F025F83F49384603F069F821
:1040FC000446384602F0D2FF34B10121072003F008
:10410C00E8FF1437BD46F0BD6946384603F011F898
:10411C003649384603F055F80546384602F0BEFFDE
:10412C000DB12146EAE76946384603F002F83049FA
:10413C00384603F046F80646384602F0AFFF66B143
:10414C002C4C204602F0A8F82B492561204603F0A0
:10415C00A2F8204602F00EFBD3E76946384602F07F
:10416C00E8FF2649384603F02CF80546384602F09D
:10417C0095FF35B11F4C204602F08EF82049266180
:10418C00E4E76946384602F0D4FF1E49384603F08E
:10419C0018F80446384602F081FF34B1154C20461D
:1041AC0002F07AF818492561D0E76946384602F0E2
:1041BC00C0FF1649384602F0F7FF0546384602F0B4
:1041CC006DFF002D9DD10B4C204602F065F8694621
:1041DC002561384602F0ADFF3968204603F05BF8E4
:1041EC00384602F05BFFB4E7CD870B00CF870B009E
:1041FC00D1870B0038E60320D3870B00E9870B002F
:10420C00EB870B00D79B0B0001880B00A8E6032063
:10421C0008B502F0CDFB034B1860BDE8084002F076
:10422C00E3BD00BF40E7032003682BB14268934213
:10423C0002D2184604F04CB90020704738B5056816
:10424C00044645B143689D4205D2284604F096F9D0
:10425C00013005442560204638BDF8B50446476852
:10426C000D4621B903687A1C4260D955F8BD084641
:10427C0004F084F9A368461CF2199A42F6D8206817
:10428C0032462946384404F02BF9606830446060AB
:10429C00ECE7000038B504460B46D0E9010125686F
:1042AC00044A091A284402F0CFFD63680130034424
:1042BC00636038BD17880B0038B504460B46D0E94F
:1042CC0001012568044A091A284402F0BDFD6368FF
:1042DC0001300344636038BD1A880B0010B5064CDE
:1042EC000968204602F039FF226804490448BDE8F9
:1042FC00104001F0B8BC00BFA8E603201E880B00DC
:10430C00D8E5032008B500234377006803F044FD8B
:10431C00BDE8084002F0CEBA2DE9F04301EB0209EA
:10432C008FB04945CDE9051980460D46164680F0FB
:10433C00928005A80F88FFF781FF03684B4580F03A
:10434C008A8005A8FFF770FF47F276239F42C4B21C
:10435C0000F0A98027D847F261239F427ED047F214
:10436C0064239F4242D046F670539F4228D1634E3D
:10437C00634FDFF8A081059B99456CD905A8FFF721
:10438C0053FFC4B205A8FFF759FF059D31462846D7
:10439C0004F0EAF80146E0B9204603F089FE05A8CE
:1043AC00FFF74CFFE7E747F264739F423FD047F2B9
:1043BC0076739F4200F0878047F261739F425FD013
:1043CC000023CDE9013302220092B8F81A201946D5
:1043DC0029E03946284604F0C7F828B1414628465A
:1043EC0004F0C2F80028DAD10121D5E70AAB45491F
:1043FC00079307A810230025CDE90853FFF72DFFDD
:10440C0007A82146FFF746FF204603F07BFE014636
:10441C0007A8FFF751FF089BCDE90155013B00931D
:10442C00079B2A461421404600F0DEFA13E005A84B
:10443C00FFF704FF036899450DD9A4B2012120466A
:10444C0003F036FE05A8FFF7EFFE011E18BF012191
:10445C00204603F03EFE0FB0BDE8F0830AAB079395
:10446C0007A8102328490025CDE90853FFF7F5FECE
:10447C0007A82146FFF70EFF204603F056FEC6E7BD
:10448C0005A8FFF7DBFE03689945E4D9A4B2012126
:10449C00204603F00DFE05A8FFF7C6FE0146204698
:1044AC0003F05AFED7E720468DF8284002F004FAB4
:1044BC0003460AA823B1154A934201D09847CAE78C
:1044CC0002F0F6F9C7E705A8FFF7B8FE059B8DF8D3
:1044DC001C405D1B751B2046CDE90A350C9502F07E
:1044EC00F5F903460AA907A823B1094A934201D05A
:1044FC009847B0E702F0DDF9ADE700BF2B880B0061
:10450C002E880B0036880B0039880B00BD680B0019
:10451C00BF680B0032880B002DE9F0418CB004AF62
:10452C00044605220068391D02F023FF98B30528C4
:10453C0004D000202037BD46BDE8F081B7F8053027
:10454C005BBA9AB2A7F80530B7F807305BBA1FFA16
:10455C0083F8A7F80730002AEBD03B7923BB02F095
:10456C00A5F90246E060607FB7F80730C0B9B7F82C
:10457C000510012914D1092B0FD0C82B01D0042B05
:10458C00D8D1012562612046657700F0DBFAFFF790
:10459C003FFE02F08FF90120CCE703236377C9E7D4
:1045AC00581F18BF0120C5E7B8F5806F03D9204606
:1045BC00FFF7A8FEEFE708F108036E46DB08A6EB51
:1045CC00C3039D4604AD20684246294602F0D1FE45
:1045DC0080454FF000007FD1B7F80730E85402F067
:1045EC0065F93B79E060142B00F0A68048D80F2BBE
:1045FC0000F0A28007D8022B48D0062B51D02046C1
:10460C00FFF780FE58E0112BF9D100233B70B7F86F
:10461C0007302B449D42C7E903534DD207F10C00E0
:10462C00D5F80080FFF70AFEFB68B7F807105D1B92
:10463C004D1BC7E905357B68FD61C3F30F2363830D
:10464C00644B984500F0BF8000F28C80A3F57F236B
:10465C006FF400721344984500F09D8079D8A3F54F
:10466C000033063B984500F09C8003F50033033380
:10467C0098456BD107F11401384602F01AF965E040
:10468C00292B1BD0372B17D01D2BB8D1637F43B9E7
:10469C0001236377204600F055FAFFF7B9FD02F0CD
:1046AC0009F90023C821B7F805200091CDE90133A1
:1046BC001946204600F098F901200DE0A3681BB9BB
:1046CC00402002F0A9FBA060B7F80780A84445453C
:1046DC00C7E9055802D30020B5462BE729464022EE
:1046EC00A06803F053FFA368002583F83F5007F13F
:1046FC001400FFF7A3FD036898451BD9786920B116
:10470C00BB69984214D203F0E7FE85B2206803F02F
:10471C0043FB2368A2685A631D870023637702F06A
:10472C00C5F8A0F59C500838C4E903006061C3E7E4
:10473C002846EAE75025E9E77B68B7F80720C3F37A
:10474C000F23638329462046FFF7E6FD002363838E
:10475C00B2E7214B9845F9D107F11401384602F024
:10476C00A8F8F3E71D4B984521D003F19F6303F59F
:10477C00003303F5807398451FD003F16E4303F5A6
:10478C00302303F586739845E0D107F114013846C0
:10479C0002F08FF8DAE707F11401384602F089F8D5
:1047AC00D4E707F11401384602F083F8CEE707F19D
:1047BC001401384602F07DF8C8E707F114013846B9
:1047CC0002F077F8C2E707F11401384602F071F8ED
:1047DC00BCE700BF766673006462670061636F6E4E
:1047EC002DE9F04104468CB00D46FFF711FD637FB7
:1047FC00022B1ED0237F628B0133DBB22377AAB945
:10480C00022B13D8206803F08FF9A8B125B92068C2
:10481C0003F068FA00280FDD2046FFF77DFE002824
:10482C00F5D1206803F0B8FA02F044F8237F013B7D
:10483C0023770CB0BDE8F08102F038F8054620680B
:10484C0003F072F9677F012F064624D120B9656108
:10485C002046FFF757FDE9E7E3684FF21862EB1AC1
:10486C009342F5D84AF6C872934203D82369EB1ADF
:10487C009342DBD9636941F27072EB1A9342D5D93A
:10488C000023CDE9013300931A460621204600F09F
:10489C00ABF86561CAE7002FC8D16369EB1A40B168
:1048AC0041F270729342C1D9206803F075FA6777B0
:1048BC00BCE741F288329342B8D9206803F06CFA15
:1048CC00D4F800C0DCF834E0BCF83880BEF1000F3E
:1048DC001BD0334642467146604603F0A7F80128C8
:1048EC00D7D16368059301251846258303F046FE4E
:1048FC000022CDE90122059B00902A461D2120466D
:10490C0000F072F82369636190E7084B06930CF191
:10491C0020070FCF07AE0FC63B6833704246734675
:10492C0006A9604603F062F9D9E700BFC4980B00F2
:10493C001FB5224800F06BFE21480021FFF750FF05
:10494C00204801F015F870B11E4801F0E8F91B4839
:10495C0000F076FE18B31C4A1C491A4805B05DF8E5
:10496C0004EB01F080B9684602F046FA009915484C
:10497C0001F0EEF8684602F091FB1549114801F080
:10498C0016FB14490F4801F012FB13490D4801F0B6
:10499C000EFB124A0E490B4801F065F9D7E70748A0
:1049AC0000F058FE08B10E4AD6E7044800F05CFE51
:1049BC0008B10C4AD0E705B05DF804FB38E60320DB
:1049CC007CE50320D8E50320D1870B006E880B0013
:1049DC001E880B003C880B004D880B0061880B0077
:1049EC00E9870B00D79B0B002DE9F04F83B000AF8C
:1049FC00044600683D6B884616469946EB4603F024
:104A0C0093F800287FD0B8F11D0F04D84C4B23FA33
:104A1C0008F3DB0702D4637F012B74D146B9668B94
:104A2C0036B9238B01339BB2002B71D02383268B99
:104A3C00A8F10C03082B16D8D4E90323934238BFF2
:104A4C00134603F1420A01F031FFAAEB00000028E3
:104A5C0060DB00212046FFF7C3FE01F027FFAAEB25
:104A6C0000000028F5DAB9F1000F5AD06B1D7A6BF3
:104A7C00002ABA6B08BF002203EB020A0AF10703F3
:104A8C0023F00703ADEB030DBB6BC7F804D0EA189A
:104A9C00C2F3072376BA43EA02238DF80080ADF8FF
:104AAC000160ADF80330B9F1000F3CD0002D3AD0C5
:104ABC002A4649460DF1050003F012FD681D7B6B7B
:104ACC003BB1BB6B2BB11A467B68796B184403F076
:104ADC0007FD002555452AD2AAEB05027B68206804
:104AEC00B2F5806F28BF4FF48062591902F0F3FEC3
:104AFC000646002001F0D8FEBEB9206803F04CF940
:104B0C00667701F0D7FE0C37DD46BD46BDE8F08F69
:104B1C0001238BE7217F0029A5D12046FFF760FEFA
:104B2C00A1E70523A3E70520C9E73544D2E703D065
:104B3C002046FFF7E7FBE6E701F0B8FE2061E2E76D
:104B4C004500002000B595B004AB002201934F2323
:104B5C0000930292034B1121FFF746FF15B05DF84D
:104B6C0004FB00BFBB880B002DE9F04194B0A223DD
:104B7C00AC22A721009302A8EA2302F05BFD03AC50
:104B8C0040F6B83001F090FE0FCC09AF0FC7324D94
:104B9C0023683B70314B6B6001F088FEA0F59C5094
:104BAC0008380DF1240CC5E903006861BCE80F005E
:104BBC000FAE0FC62C683B6833704FF0000841F6FF
:104BCC009073C4F8348023870FAF0FCF20340FC4F9
:104BDC003368237044F24F66286803F0DDF885F8DB
:104BEC001D8001F063FE04466B7F012B0CD001F09D
:104BFC005DFE001BB04204D800212846FFF7F0FDF3
:104C0C00F2E76B7F012BE7D10121072003F050FA6B
:104C1C000EA802F0F1F80E99114800F099FF0EA8B9
:104C2C0002F03CFA0E4800F0A3FE18B10D490C48F6
:104C3C0001F0BDF90C4800F0C1FC0B4800230361E6
:104C4C00012100F06CFC08484FF00113436114B0D3
:104C5C00BDE8F04101F08EBD7CE5032083880B009C
:104C6C00D8E503201E880B0038E6032037B5154D18
:104C7C000021012002F03CF8284603F0D7F805F19A
:104C8C001C0002F093FC104B10480024C3E90054A4
:104C9C00C3E90244C3E904449C619C8307216C630F
:104CAC002C8700F05DFC0A490A4802F042FA0A4BD4
:104CBC000A49009440F25B72094800F07DFD03B094
:104CCC0030BD00BF9CE503207CE5032038E60320C3
:104CDC0014890B00A8E60320CD400B00A4880B0020
:104CEC00D8E50320704710B510210446FFF7D1F921
:104CFC00204610BD0EB403B503AB002153F8042BB2
:104D0C00019302F0F0FA02B05DF804EB03B07047C7
:104D1C0073B5044608462279A36832B1A3B90B498E
:104D2C0002B0BDE8704002F0A3BA094A267B094DD7
:104D3C000949647B012E18BF2946CDE900140749A7
:104D4C00FFF7D8FF02B070BD054AEFE71D890B00D5
:104D5C0014890B0019890B0015890B0033890B0082
:104D6C000C890B002DE9F04F85B01F46BDF938803A
:104D7C00BDF83C30A8EB0209A7EB010AB9F1000F12
:104D8C00B8BFC9F10009BAF1000FB8BFCAF1000AE7
:104D9C00D14583460C46154604DD3A462C4647461B
:104DAC000D469046BC4205DD2A46454690462246B5
:104DBC003C4617463E1BB2B20092A8EB050282EAB3
:104DCC00E271A1EBE271C6F3C03202FA86F64545F8
:104DDC00B4BF01224FF0FF32019176100292BC4217
:104DEC001CDCDBF800200393D145D2F81880C7BF38
:104DFC00294622462A4621465846C047019A039B1B
:104E0C00B61AB1B236B2002E05DA029A1544009ADF
:104E1C0056182DB236B2013424B2E0E705B0BDE825
:104E2C00F08F704710B404682469A4465DF8044BF5
:104E3C00604730B40468BDF808500295A46BA446D2
:104E4C0030BC604730B40468BDF808500295E46B80
:104E5C00A44630BC604770B4BDF90C50BDF810606E
:104E6C000468CDE90356246CA44670BC60472DE958
:104E7C00F3411C460368BDF820805B690546164665
:104E8C00013C34440F4624B298472B68CDF804807B
:104E9C0000949C6A28463B4632463946A0472B680C
:104EAC00DB6A284602B0BDE8F04118472DE9F34112
:104EBC001D460368BDF820805B69044617460E4604
:104ECC009847CDE9007822686B1E3344956A2046DA
:104EDC001BB23A463146A8472368DB6A204602B02B
:104EEC00BDE8F04118472DE9F3471E460368BDF9AC
:104EFC0028905B69BDF82C800C46054617469847F0
:104F0C002644B4422B680BDACDF80080D3F820A0ED
:104F1C0021464B463A4628460134D04724B2F0E7A6
:104F2C00DB6A284602B0BDE8F047184713B50268A3
:104F3C000191B0F90E100091146CB0F90C300022F4
:104F4C001146A04702B010BD2DE9F7439942164611
:104F5C00BDF92870BDF82C90026880460D461C46A1
:104F6C0013D1BE42C8BF3346CDF82890C4BF3E46CD
:104F7C001F467B1C946B9B1B1BB23246294640463A
:104F8C00A44603B0BDE8F0436047BE420AD1994243
:104F9C00C2BF0B4625461C46631CCDF82890D46B2B
:104FAC005B1BE9E753699847CDE90079D8F80030E5
:104FBC0040469F6A324623462946B847D8F8003007
:104FCC00DB6A404603B0BDE8F04318472DE9F347D0
:104FDC001D460368BDF82C805B69BDF9289004461A
:104FEC000F46164698472368CDF80080D3F824A0C6
:104FFC0032462B4639462046D0472368CDF80080F0
:10500C0009F1FF323244D3F824A039462B4620460E
:10501C0012B2D0472368CDF80080D3F820A03246D6
:10502C004B4639462046D0476B1ED9192368CDF81C
:10503C0000801D6A20464B46324609B2A8472368B9
:10504C00DB6A204602B0BDE8F0471847704701F014
:10505C000303B0F90A208376C907B0F9083059BFA9
:10506C008381C2818281C3817047000030B5428147
:10507C00C281074A074D0181002481814FF0FF3125
:10508C00C0E905124460056004610477046230BD18
:10509C0001010001588E0B002DE9F04F89B0CDE9CC
:1050AC0002120268BDF948800493BDF94C30526974
:1050BC000593BDF850A00446904718F107024FF035
:1050CC00000648BF08F10E024FEAE20B0196354686
:1050DC00039B019ABDF904109A18059B8B4212B2DE
:1050EC0027DD049B33444FF0000906930FFA89F037
:1050FC0080451FFA89F117DD4F0705BF069BC010CD
:10510C006D001D5C18BFEDB22B060AD5029B206802
:10511C0007921944836909B21F4620465346B84783
:10512C00079A09F10109E1E7019B013301935E4400
:10513C00CEE72368DB6A204609B0BDE8F04F18477C
:10514C002DE9F04F2DED028B91B01646026ABDF899
:10515C0074809DF878509DF87C4003911F46BDF8F3
:10516C00703004938346002A40F0C580B0F90C30AF
:10517C008B4240F34C81B0F90E30B34240F347817F
:10518C00062313FB0513002B40F3418106EBC403EC
:10519C00002B40F33C81037F1BB9AF2F84BF013739
:1051AC00FFB2DBF8003058465B699847052209923C
:1051BC0000220592984A07EB8703D3180C93B3B2DD
:1051CC000693059A0C9B9B5C0793ABB20B93BDF8B3
:1051DC000C300893039B02FB05F919FA83F90FFABB
:1051EC0089F308EE103A08230A93039B02EB030A97
:1051FC004FF000090FFA8AFA079ADBF80030D20751
:10520C0052D5012D1FFA89F23ED1012C3CD19B695C
:10521C0006991F46049B0A4412B251465846B84799
:10522C0009F101034FFA83F9079B5B0807930A9B6B
:10523C00013B13F0FF030A93DED1059F01377BB2CC
:10524C000593099B013B13F0FF030993B9D1049B10
:10525C0043450FD0012DDBF800303BD1012C39D167
:10526C000899CDF8008005311C6A3246082309B232
:10527C005846A047DBF80030DB6A584611B0BDEC4D
:10528C00028BBDE8F04F1847069914FB02F20A4452
:10529C00049901910094DB6918EE101A1F4612B2A2
:1052AC002B465846B847BBE7049A4245B8D0012D67
:1052BC001FFA89F207D1012C05D19B6906991F466B
:1052CC000A444346A8E70699CDF8048014FB02F281
:1052DC000A44DFE70B9ACDF8048002EB8201089AAE
:1052EC00E4000A4411460094DC6932462B4609B2AC
:1052FC005846A047BEE7137A516812680B92FF1A02
:10530C00FFB201EBC70331F8372006929A78099265
:10531C00DA780C92012D93F9052093F906A00A92E4
:10532C0001D8012C57D9BDF9283008930FFA8AF30C
:10533C000793DBF8003058465B699847B3B24FF0DF
:10534C0000080E931AFA86F3C14647460F930C9B3E
:10535C009F428FD2079B0E9A3B4403FB04230022EF
:10536C0005920F9A1BB202EB070A08EE103A0FFADD
:10537C008AFA4346099A0599914241D25A1CD2B2F3
:10538C005B070D9207D1069B06990B9A01339BB2D2
:10539C0012F80190069319F0800F12D0012DDBF852
:1053AC000030BDF80C101AD1012C18D10A9A9B6947
:1053BC001144059A11441E465246049B09B25846A4
:1053CC00B047059E0136F3B24FEA490905935FFADF
:1053DC0089F90D9BCEE70023CDE90733A9E70598A2
:1053EC00089A024402FB0511049ACDE90042DB69DC
:1053FC0018EE102A1E4609B22B465846B047E0E775
:10540C00099B013798445FFA88F8FFB29FE711B007
:10541C00BDEC028BBDE8F08F50890B00F0B5026A31
:10542C0085B004460B46002A34D10A2908D1438A98
:10543C000282427E03EBC2036382012005B0F0BD01
:10544C000D29FAD0E17E007E657E71B1B4F9106051
:10545C00062111FB0061B4F90C60B142C1BFB4F973
:10546C001210228201EBC5026282E28A0192A28AA8
:10547C000092CDE90205B4F91220B4F910102046BF
:10548C00FFF75EFE237E228A03EB430302EB43030A
:10549C002382D2E70A2907D100230382417E927A24
:1054AC00438A01FB0233C7E70D29C6D0157AA942FE
:1054BC00C3D3517A9942C0D351685D1BEDB201EB55
:1054CC00C505A87828B3E97819B3E17E267E677EF6
:1054DC0091B195F905100844B4F9101006FB0011B0
:1054EC00B4F90C00814207DD00202082B4F91210BF
:1054FC00927A02FB07126282E28A0192A28A0092DD
:10550C00CDE90267B4F91220B4F910102046FFF768
:10551C0017FE2979227E238A01FB0233B8E7012981
:10552C0038BF0121017641767047000010B5064B5B
:10553C0003600446006D08B101F04AFA204600F001
:10554C0039FD204610BD00BFB08E0B0010B50446CF
:10555C00FFF7ECFF20467021FEF79BFD204610BDA7
:10556C0030B585B004460D4602F074FE104A114960
:10557C00CDE901214FF0FF328021034600922046F5
:10558C00202200F08FFD0C4B23600023C4E914355E
:10559C0004F1580000F072F804F1600000F06EF8AD
:1055AC0004F1680000F06AF8204605B030BD00BF79
:1055BC00801A0600A0860100B08E0B0013B50446BD
:1055CC00503001F0FDF9636DD90705D50222042195
:1055DC0004F1580000F066F8636D9A0705D50022B7
:1055EC00032104F1600000F05DF8636D5B0705D5E5
:1055FC000222114604F1680000F054F801230093D4
:10560C003C220221204600F055FE02B010BD10B520
:10561C00436DD907044602D5583000F050F8636D3D
:10562C009A0703D504F1600000F049F8636D5B073D
:10563C0005D504F16800BDE8104000F040B810BD7D
:10564C00436D024613F0010003D002F1580000F044
:10565C0066B87047436D024613F0020003D002F1A6
:10566C00600000F05CB87047436D024613F0040014
:10567C0003D002F1680000F052B8704700210A22F2
:10568C00C0E900127047002310B50446C171837144
:10569C0088B202F037FD08B10323A37101F088F939
:1056AC00206010BD38B50C4605461146A0B202F07C
:1056BC00FFFC21462846BDE83840FFF7E4BF38B56B
:1056CC000446C07902F01EFDA579003825F00803C8
:1056DC0018BF0120C5F340058542A3710AD001F023
:1056EC0067F9A379206083F00203A371A079C0F35A
:1056FC00C00038BD01F05CF92368C01AA388984239
:10570C00F4D3A37903F00103AB42EFD001F050F9CD
:10571C00A379206083F0010343F00803E5E7807967
:10572C0000F00900A0F1080358425841704791F865
:10573C005C3010B50446016013B1886D01F050F96E
:10574C00204610BD10B5036893F85C20044612B1D6
:10575C00986D01F04DF9204610BDF8B51F469DF827
:10576C00243004460D4616462BB1012380F85C30DC
:10577C00583001F025F9089B23630023636306B1BD
:10578C00A66425B1294604F1380001F0E6FC069B1D
:10579C002365079BE069A4F84C70FF2BB8BFFF236F
:1057AC00A4F8543008B1FEF772FCB4F85400FEF7BC
:1057BC006CFCE061F8BD00002DE9FF4104460025BA
:1057CC00174698460E4602F031FB0D49E56104F18F
:1057DC00380001F0AEFC9DF82830A564CDE90283B9
:1057EC00FF220F23CDE90032204684F85C503B4663
:1057FC002A463146FFF7B1FF204604B0BDE8F081E0
:10580C0014890B0010B50446204602F06BFA0028F0
:10581C00FAD0204602F074F8C0B210BD2DE9F04762
:10582C0005468846FFF7EEFFEB691870EB6993F8B5
:10583C0000A04FF001090AF0F00A00274C46284658
:10584C00FFF7E0FF2646EB69985500F07F0313FB4A
:10585C0009F31F4401340306A4B2BFB24FEAC919BD
:10586C00EDD4631EBAF1300F88F800301ED12846F3
:10587C00FFF7C8FFEB6918552846FFF7C3FFF41C68
:10588C000236B6B2EB69A4B298550226B6B2BE4245
:10589C000ED22846FFF7B6FFB5F85430A34284BFAA
:1058AC00EB6918550134A4B20136EFE70026EDE799
:1058BC00B5F85430A3422CBF20460020BDE8F08739
:1058CC002DE9F34115461E461A4607460023964617
:1058DC0002A802F07F0CBEF17F0F03F10104034418
:1058EC0088BF4CF0800CBEF17F0F4FEAD212E4B2AD
:1058FC0003F804CC1ED8C4F10403C4F10500E95428
:10590C00224601A9284405EB030802F0E9FD721CAC
:10591C0022444146384601F0DEFF054601F048F8C6
:10592C00621C78623244A8B2131A5842584102B031
:10593C00BDE8F0812346CAE70233F0B5054698B2BC
:10594C000023CE5C9CB256B1B5F854C0844503F12B
:10595C00010704D9441C16543B46A0B2F1E799B296
:10596C00411A0A44210A02F8021C02F8013CF0BD5B
:10597C0038B5044602F0D8F8002814BF01250025DC
:10598C0002D1204602F008FA284638BD2DE9F0472E
:10599C0088B00446DDF840809DF850A08946174633
:1059AC001E46FFF7E5FF0546002840F0CD80214656
:1059BC0001A8FFF7BCFEA16C002940F08880B4F868
:1059CC004C20A16B2B46204602F030F800287AD0F0
:1059DC00012323849DF85430E269042B5B4B40F087
:1059EC008180186899889B79ADF80C108DF80E3071
:1059FC000290C2F805009DF80E30BDF80C10A2F80C
:105A0C000910D3720C23B8F1000F00F081809DF8BF
:105A1C0048009DF84420400140EAC20040F00600D6
:105A2C00C0B2BAF1000F01D100F0FD001FB1002E81
:105A3C0070D140F08000E269D054226DE169581CAD
:105A4C0012120A549A1CE169206D88540333E269DE
:105A5C0049462046FFF770FF0346B8F1000F0BD004
:105A6C00E26941462046FFF767FFE2691399034656
:105A7C002046FFF761FF034667B1E26939462046CD
:105A8C00FFF75AFF03462EB1E26931462046FFF775
:105A9C0053FF0346053BE2699BB210212046FFF7FA
:105AAC000FFF00F085FFC4E909004FF47A76204619
:105ABC0002F018F988BB00F07BFFA36AC01A236DB3
:105ACC0073439842F3D9204602F066F935E002A8F8
:105ADC0001F0BCFDB4F84C202B4602A9204602F084
:105AEC0085F873E7D3F80700D3F80B10DB7B0DF1C7
:105AFC00080CACE803008CF8003002AB03CBC2F806
:105B0C000500C2F809109CF8003053730E237AE795
:105B1C00022086E740F0C0008DE702A92046FFF77F
:105B2C007DFE0428CFD1E369DE78002ECBD100F0C6
:105B3C003FFF0125A06284F82C6001A8FFF702FE4C
:105B4C00284608B0BDE8F0870025F9E7008F0B0068
:105B5C007FB501230422CDE904320023CDE90233C1
:105B6C00CDE900331A46FFF711FF07B05DF804FBCF
:105B7C002DE9F74FDDF83C809DF834509DF83890B6
:105B8C0004468B4616461F46FFF7F2FE8246002857
:105B9C0051D0214601A8FFF7CAFDB4F85420E069A2
:105BAC00002102F0ABFC0523E26959462046FFF7C1
:105BBC00C3FE6B1E012B15D8218CE369013189B210
:105BCC002184090A1954421CE369218C92B20230D7
:105BDC00995480B2B8F1000F04D0238C5A1C228443
:105BEC00A8F8003000210B188F42E2699BB20AD949
:105BFC00B4F854C09C4506D916F801C002F803C08D
:105C0C00013189B2EFE79DF8301000290CBF30212B
:105C1C003121B9F1000F01D041F00801022D0ED154
:105C2C0041F00401053B9BB22046FFF749FE82463A
:105C3C0001A8FFF787FD504603B0BDE8F08F012D9A
:105C4C0008BF41F00201EDE71FB5089C0394002446
:105C5C0002949DF81C4001949DF818400094FFF7A5
:105C6C0087FF04B010BD30B587B0044610460591CF
:105C7C00049202F083FC00250346CDE90155DDE9D1
:105C8C00042100952046FFF7DFFF07B030BD73B548
:105C9C0004460E46FFF76CFE0546C8B1214601A826
:105CAC00FFF745FDE36962221A70E36902225A701C
:105CBC00E369320A9A70E369DE70E16904222046D6
:105CCC0001F009FE051E01A818BF0125FFF73AFDDA
:105CDC00284602B070BD73B504460E46FFF748FE69
:105CEC000546C8B1214601A8FFF721FDE3697222E0
:105CFC001A70E36902225A70E369320A9A70E369F6
:105D0C00DE70E1690422204601F0E5FD051E01A8C4
:105D1C0018BF0125FFF716FD284602B070BD2DE90E
:105D2C00F04F2DED028B87B000AF0446FFF720FE3D
:105D3C008146F8B1214607F11400FFF7F8FC00F09A
:105D4C0037FE236D4FF47A725343A26A821A9A4239
:105D5C00064603D8626A821A934221D294F82C30F8
:105D6C007BB1204602F018F84FF0000907F114003F
:105D7C00FFF7E8FC48461C37BD46BDEC028BBDE87E
:105D8C00F08FE269C0211170E2695370E16902225F
:105D9C00204601F0A0FDC4E90966012384F82C30EB
:105DAC00204601F09FFF0028E0D007F113012046A8
:105DBC00FFF734FD83460028D8D0E369A662197832
:105DCC0001F0F002302A7FD1D4F830A0BAF1000FE4
:105DDC00CCD097F813C06A4608EE102A03EB0C02DD
:105DEC005178957805EB0125ADB205F108026946AD
:105DFC00D208A1EBC20295460CF10302FA6003EB48
:105E0C00020E0DEB05026846C7F808D07A60D7E998
:105E1C0001218A4206D00A461EF8018B02F8018B3A
:105E2C00BA60F4E70022425593F80080F96808F054
:105E3C000608ABEB0C02033AB8F1020FA2EB050219
:105E4C00294425D113F801E01944023A91F801B024
:105E5C000CF10501294419440BEB0E2BD047E369D7
:105E6C0040221A70E3691FFA8BFB83F80180E36907
:105E7C004FEA1B229A70E36983F803B0E1690422AC
:105E8C00204601F028FD666218EE103A9D466DE73B
:105E9C00B8F1040F15D113F801E01944023A91F846
:105EAC0001B00CF10501294419440BEB0E2BD04722
:105EBC00E36950221A70E36902221FFA8BFB5A70B5
:105ECC00D5E71944D047DFE7502A08D19A78D9781A
:105EDC0001EB022189B22046FFF7D9FE46E7402AA2
:105EEC0012D1626B002A3FF441AFBBF1040F7FF477
:105EFC003DAF11F0060F7FF439AF9978D87800EBED
:105F0C00012080B2904731E7602A08D19A78D9787D
:105F1C0001EB022189B22046FFF7DDFE26E7702A4D
:105F2C00DFD0902A3FF422AFC02A0AD1D0221A70B7
:105F3C00E36900225A70E1690222204601F0CBFC91
:105F4C0014E7D02A04BF002384F82C300EE7F7B5F1
:105F5C0004460F461646FFF70BFD054610B32146C7
:105F6C0001A8FFF7E4FB238C01339BB2EBB1238434
:105F7C00238CE2691B0A5371E369228C9A71E269E2
:105F8C00072339462046FFF7D7FCE3691E54043833
:105F9C0083B2E26982212046FFF792FC054601A8F4
:105FAC00FFF7D0FB284603B0F0BD0123DFE700224A
:105FBC00FFF7CDBF10B5044B03600446C06A08B1AF
:105FCC0000F032FF204610BDCC930B0010B50446F8
:105FDC00FFF7F0FF20465021FEF75BF8204610BD7E
:105FEC00002910B54BDBB0F90C408C4247DD002A80
:105FFC0045DBB0F90E40944241DD847E022C1FD06B
:10600C00032C26D0012C04D10489D24314440A4613
:10601C0021B2012B23D0022B32D083BB002A134692
:10602C000489C06AB8BFD31DDB1013FB041102F046
:10603C00070201239340425C22EA030242541EE011
:10604C000489013C611A4489D243224409B212B238
:10605C00DFE74489013C641A114622B2D9E7002AD1
:10606C0004891346B8BFD31DDB1013FB0411C36A9C
:10607C0002F0070001228240585C02435A5410BDC2
:10608C00002A13460489C06AB8BFD31DDB1013FB6A
:10609C00041102F00702012303FA02F2435C5A4096
:1060AC00CCE7000070B504461D460026FEF7DEFF67
:1060BC00114B2360666215B902F0CCF80546FF233C
:1060CC0084F8333084F836309DF9103084F837304A
:1060DC000A4BA363012384F83C30059BA3644FF661
:1060EC00FF72069BA286C4E90A562664A4F8446093
:1060FC00E364204670BD00BFCC930B00188F0B00DF
:10610C00F8B50446806A0D4690B194F9301001F050
:10611C00CBFBA06A036800219B689847A06A0368C0
:10612C0029469B689847A06ABDE8F84001F0C3BBBC
:10613C0094F93530014698B201F0CBFF606A20B17A
:10614C002946BDE8F84000F091BF0826802794F955
:10615C00330005EA070180B201F0BBFF94F934006B
:10616C00012180B201F0B5FF94F93400002180B216
:10617C0001F0AFFF013E4FEA5707E8D1F8BD38B543
:10618C000446806A0D4680B1A16C01F07FFB002DA6
:10619C00204614BFA721A621FFF7B2FFA06A88B141
:1061AC00E16CBDE8384001F071BB606A18B104F1D4
:1061BC00380100F0EDFE94F93600002180B201F0B8
:1061CC0088FFE4E794F93600012180B201F081FFE9
:1061DC00606A18B1BDE8384000F0C0BE38BD2DE98A
:1061EC00F8430446806A0D468F1840B394F930107A
:1061FC0001F05AFBA06A036800219B6898470126AE
:10620C00AF42A06A17D01F2E0CD901F054FB94F9A1
:10621C003010A06A01F048FBA06A036800219B685B
:10622C0098470126A06A15F8011B036801369B6884
:10623C009847F6B2E4E7BDE8F84301F03CBB94F9AB
:10624C003530014698B201F044FFBD4222D0606A5D
:10625C0015F8019B18B1494600F008FFF5E7082630
:10626C004FF0800894F9330009EA080180B201F07C
:10627C0030FF94F93400012180B201F02AFF94F927
:10628C003400002180B201F024FF013E4FEA58088F
:10629C00E8D1DAE7BDE8F883B0F90A30DA1D48BF77
:1062AC0003F10E02B0F90830C06AD2105A43002133
:1062BC0002F024B92DE9FF411E46C36A9DF82880DF
:1062CC0004460F461546C3B12046FFF7E5FFB4F967
:1062DC000A00B4F90810202821DC202301222038E0
:1062EC00CDE9013200EBD07073237339009301EBCD
:1062FC00D171894B40F34F0221E0B0F90A30D81D1F
:10630C0048BF03F10E00B4F90830C010584300F038
:10631C0083FDE0620028D7D104B0BDE8F08140389D
:10632C00C0F3C03202FA80F240230120CDE90130E3
:10633C00522352390093794B01EBD1715210204604
:10634C0041F34F01FEF7A8FEA06A84F831700028D3
:10635C0078D0002D74D1B4F90A30202B0CBF3C2519
:10636C003D2584F83050B8F1000F01D001F092FABD
:10637C00FEB194F9370000281BDB012180B201F03B
:10638C0097FE94F93700012180B201F0A2FE0120A2
:10639C0001F016F894F93700002180B201F099FE53
:1063AC000A2001F00DF894F93700012180B201F0B8
:1063BC0090FEA06A002874D0A16C01F067FA042248
:1063CC0057492046FFF70BFF61890139C9B22046B6
:1063DC00FFF796FE534904222046FFF700FF94F97D
:1063EC003130012B0CBF102114212046FFF788FE01
:1063FC0004224D492046FFF7F2FEA3684B4A934214
:10640C005CD14B4904222046FFF7E9FED9212046F6
:10641C00FFF776FE94F93130012B0CBF2221F121CC
:10642C002046FFF76DFE204642490622FFF7D7FEB5
:10643C00A06A002863D0E16C01F028FA01206BE718
:10644C006DB28EE794F93500012180B201F030FE77
:10645C0094F93600012180B201F02AFE94F936003D
:10646C00012180B201F035FE656A3DB1B8F1000F33
:10647C003FF47EAF284600F05DFD79E794F93300D8
:10648C00012180B201F014FE94F93400012180B294
:10649C0001F00EFE94F93400294680B201F019FE89
:1064AC0066E7606A18B104F1380100F071FD94F9E7
:1064BC003600002180B201F00CFE80E71E4A9342A8
:1064CC000ED11E4903222046FFF789FE94F9313084
:1064DC00012B0CBF9F21CF212046FFF711FE95E722
:1064EC00174A934292D1174903222046FFF777FEB1
:1064FC0094F93130012B0CBF1021AF21ECE794F94A
:10650C003600012180B201F0E4FD606A002895D0CC
:10651C0000F024FD92E700BFE4910B00248F0B00E8
:10652C002C940B0030940B0034940B008000200052
:10653C003E940B0038940B008000400042940B00FA
:10654C006000100045940B0070B5002ABDF8105087
:10655C003DDBB0F90A40944239DD0029BEBF5B181F
:10656C001BB20021B0F90840CE18A642C4BF631A72
:10657C001BB2002B2BDDC06AD61014FB0611014494
:10658C0002F0070001228240012DD2B216D0022D5A
:10659C000BD0E5B9D243D2B20B44994217D011F8C3
:1065AC00010B104001F8010CF7E70B4499420ED097
:1065BC0011F8010B504001F8010CF7E70B4499421C
:1065CC0005D011F8010B104301F8010CF7E770BD71
:1065DC00F0B50029BDF8145076DBB0F90860B14273
:1065EC0072DA002ABEBF9B181BB20022B0F90A4017
:1065FC00D718A742C4BFA31A1BB2002B64DDC2F389
:10660C00C404C76A16FB041612F00702DBB207EBD0
:10661C00060423D0C2F10802D2B22D4993423CBFEA
:10662C004FF0FF0CA2EB030E895C3CBF4CFA0EFC46
:10663C000CEA0101012D07D0022D2ED04DB917F80F
:10664C0006C02CEA010103E017F806C041EA0C0170
:10665C00B955934238D3B0F908100C449A1AD2B2F7
:10666C00072A0ED9022D1DD113462178C94321705A
:10667C00083BB0F90810DBB2072B0C44F5D802F03C
:10668C0007020AB3134B012D9B5C1AD0022D1CD0B0
:10669C00D5B9227822EA030315E017F806C081EA7F
:1066AC000C01D5E7291E18BF01214942C9B2134676
:1066BC002170083BB0F90860DBB2072B3444F7D8E3
:1066CC00DDE7227813432370F0BD22785340FAE7BC
:1066DC001C940B0024940B0070B41446827EBDF8FD
:1066EC000C60022A0DD0032A18D0012A11D102897C
:1066FC00E443144424B203960A46214670BCFFF7C7
:10670C0067BF42890589E44319441444691A24B2C9
:10671C0009B20396224670BCFFF716BF458919448F
:10672C00691A09B2E7E730B41446827EBDF8085006
:10673C00022A0DD0032A18D0012A11D1E21804899B
:10674C00A41A24B202950A46214630BCFFF7FCBEBF
:10675C000289C9431144E2184489A41A09B224B22B
:10676C000295224630BCFFF733BF4289C94311441E
:10677C0009B2E7E72DE9F8430446806A002842D0C5
:10678C00A16C01F083F8474905222046FFF727FD4D
:10679C00218901392046C9B2FFF7B2FCB4F90A309D
:1067AC00DE1D48BF03F10E06D4E90A052389F61055
:1067BC0013FB06F615FA86F600283AD094F9301039
:1067CC0001F072F8A06A036840219B689847012782
:1067DC00B542A06A24D01F2F0CD901F06CF894F9A3
:1067EC003010A06A01F060F8A06A036840219B6831
:1067FC0098470127A06A15F8011B036801379B68AD
:10680C009847FFB2E4E7606A18B104F1380100F070
:10681C00BFFB94F93600002180B201F05AFCB2E7BC
:10682C0001F049F8A06A78B3E16CBDE8F84301F0D7
:10683C002DB894F93500012180B201F04AFCAE422A
:10684C00F0D0606A15F8019B18B1494600F00EFCB7
:10685C00F5E708274FF0800894F9330009EA08019E
:10686C0080B201F036FC94F93400012180B201F0C1
:10687C0030FC94F93400002180B201F02AFC013F75
:10688C004FEA5808E8D1DAE794F93600012180B2D2
:10689C0001F01FFC606A18B1BDE8F84300F05EBB64
:1068AC00BDE8F88348940B0000F08ABD00F080B876
:1068BC00704770477047000003065ABF024B53F8ED
:1068CC0020000020704700BF50940B0003065ABFF5
:1068DC00024B53F820000020704700BF50960B006D
:1068EC0008B5024B1B689B68019308BD6802030046
:1068FC0008B5024B1B68DB68019308BD68020300F6
:10690C0008B5024B1B685B68019308BD2C020300A1
:10691C0008B5024B1B689B68019308BD2C02030051
:10692C0008B5024B1B68DB68019308BD2C02030001
:10693C0008B5024B1B681B69019308BD2C020300B0
:10694C0008B5024B1B685B69019308BD2C02030060
:10695C0008B5024B1B689B6A019308BD2C0203000F
:10696C0008B5024B1B681B6B019308BD2C0203007E
:10697C0008B5024B1B689B6F019308BD2C020300EA
:10698C0008B5024B1B685B69019308BD6C020300E0
:10699C0008B5024B1B685B68019308BD1802030025
:1069AC0008B5024B1B68DB68019308BD1802030095
:1069BC0008B5024B1B685B69019308BD1802030004
:1069CC0008B5024B1B681B6B019308BD4802030002
:1069DC0008B5024B1B685B6B019308BD48020300B2
:1069EC0008B5024B1B689B6B019308BD4802030062
:1069FC0008B5024B1B681B6C019308BD48020300D1
:106A0C0008B5024B1B685B6C019308BD4802030080
:106A1C0008B5024B1B685B69019308BD6402030057
:106A2C0008B5024B1B681B6A019308BD6402030086
:106A3C0008B5024B1B689B6A019308BD64020300F6
:106A4C0008B5024B1B68DB68019308BD3C020300D0
:106A5C0008B5024B1B681B69019308BD3C0203007F
:106A6C0008B5024B1B685B69019308BD3C0203002F
:106A7C0008B5024B1B689B69019308BD3C020300DF
:106A8C0008B5024B1B68DB69019308BD3C0203008F
:106A9C0008B5024B1B681B6A019308BD3C0203003E
:106AAC0008B5024B1B689B6A019308BD3C020300AE
:106ABC0008B5024B1B681B6C019308BD3C0203001C
:106ACC0008B5024B1B681B68019308BD2802030024
:106ADC0008B5024B1B68DB68019308BD2802030054
:106AEC0008B5024B1B689B69019308BD2802030083
:106AFC0008B5024B1B68DB69019308BD2802030033
:106B0C0008B5024B1B681B6A019308BD28020300E1
:106B1C0008B5024B1B685B6A019308BD2802030091
:106B2C0008B5024B1B689B6A019308BD2802030041
:106B3C0008B5024B1B68DB6A019308BD28020300F1
:106B4C0008B5024B1B681B6B019308BD28020300A0
:106B5C0008B5024B1B685B6B019308BD2802030050
:106B6C0008B5024B1B681B6C019308BD280203007F
:106B7C0008B5024B1B689B69019308BD38020300E2
:106B8C0008B5024B1B68DB69019308BD3802030092
:106B9C0008B5024B1B681B6A019308BD3802030041
:106BAC0008B5024B1B689B6A019308BD38020300B1
:106BBC0008B5024B1B681B6B019308BD3802030020
:106BCC0008B5024B1B689B6B019308BD3802030090
:106BDC0008B5024B1B681B68019308BD300203000B
:106BEC0008B5024B1B685B69019308BD30020300BA
:106BFC0008B5024B1B68DB69019308BD300203002A
:106C0C0008B5024B1B681B6A019308BD30020300D8
:106C1C0008B5024B1B685B6A019308BD3002030088
:106C2C0008B5024B1B68DB6B019308BD30020300F7
:106C3C0008B5024B1B681B6C019308BD30020300A6
:106C4C0008B5024B1B685B6C019308BD3002030056
:106C5C0008B5024B1B681B68019308BD4C0203006E
:106C6C0008B5024B1B681B69019308BD4C0203005D
:106C7C0008B5024B1B685B69019308BD4C0203000D
:106C8C0008B5024B1B689B69019308BD4C020300BD
:106C9C0008B5024B1B68DB69019308BD4C0203006D
:106CAC0008B5024B1B681B6A019308BD4C0203001C
:106CBC0008B5024B1B685B6B019308BD60020300B7
:106CCC0008B5024B1B681B6D019308BD60020300E5
:106CDC0008B5024B1B685B68019308BD20020300DA
:106CEC0008B5024B1B685B69019308BD20020300C9
:106CFC0008B5024B1B68DB6A019308BD2002030038
:106D0C0008B5034B1B68D3F88830019308BD00000D
:106D1C002002030008B5034B1B68D3F89430019391
:106D2C0008BD00002002030008B5024B1B685B681D
:106D3C00019308BD4002030008B5024B1B689B6819
:106D4C00019308BD4002030008B5024B1B68DB68C9
:106D5C00019308BD4002030008B5024B1B681B6978
:106D6C00019308BD4002030008B5024B1B685B6928
:106D7C00019308BD4002030008B5024B1B689B69D8
:106D8C00019308BD4002030008B5024B1B68DB6988
:106D9C00019308BD4002030008B5024B1B681B6A37
:106DAC00019308BD4002030008B5024B1B681B6B26
:106DBC00019308BD4002030008B5024B1B685B6BD6
:106DCC00019308BD4002030008B5024B1B681B6C05
:106DDC00019308BD4002030008B5024B1B685B6CB5
:106DEC00019308BD4002030008B5024B1B689B6869
:106DFC00019308BD4402030008B5024B1B68DB6914
:106E0C00019308BD4402030008B5024B1B68DB6B01
:106E1C00019308BD4402030008B5024B1B681B68B4
:106E2C00019308BD1C02030008B5024B1B685B688C
:106E3C00019308BD1C02030008B5024B1B689B683C
:106E4C00019308BD1C02030008B5024B1B68DB69EB
:106E5C00019308BD1C02030008B5024B1B685B6A5A
:106E6C00019308BD1C02030008B5024B1B68DB6BC9
:106E7C00019308BD1C02030008B5024B1B681B6C78
:106E8C00019308BD1C02030008B5024B1B685B6C28
:106E9C00019308BD1C020300002240681146FFF755
:106EAC007BBF002240681146FFF786BF4068002276
:106EBC00FFF77ABF4068002281F00101FFF764BF41
:106ECC00002340681A461946FFF756BF0023406856
:106EDC001A461946FFF748BF002240681146FFF7D3
:106EEC003BBF002240681146FFF726BF40680022D6
:106EFC000221FFF729BF002340681A46FFF714BF91
:106F0C00024B03225A60024A1A607047C4E60320FF
:106F1C0058980B000021FFF793BE0021FFF788BEA5
:106F2C0010B5044608462170FFF762FE002363602B
:106F3C00204610BD13B504460078FFF7EEFF58B994
:106F4C00207801904FF6FF71FFF742FE019802B0D6
:106F5C00BDE81040FFF7DEBF02B010BD0078FFF7B0
:106F6C00D9BF0000400830B518600024186888426A
:106F7C00E5B206D90134082C02D040081860F5E7B8
:106F8C000725024B5B5D137030BD00BF8C980B0066
:106F9C002DE9F04306468FB000780C46FFF7BDFF95
:106FAC0000281BDB35781422002109A801F0A6FA71
:106FBC000B23002209A92846ADF82430FFF728FE40
:106FCC009DF82D3013B19DF82C5055B10027B946C2
:106FDC00B846012523795DB1C3B100200FB0BDE8DF
:106FEC00F083DDF830809DF834909DF83570F1E732
:106FFC00002B35D1A368434508D18DF820908DF82E
:10700C002170BDF82020A3899A42E6D00023A16804
:10701C008DF80F300A9804AB0DF10F02FFF7A2FFA9
:10702C00217985B989B9A36843450ED38DF8209091
:10703C008DF82170BDF82020A3899A4205D1049BBC
:10704C00434502D1C9E70029F9D100230193637BA1
:10705C0000939DF80F20237B3078FFF7E1FDBCE710
:10706C00CDE900552B462A460121F5E708B50078F5
:10707C00FFF7B6FDC0B208BD054B02221A60054BE6
:10708C00054A9A600020C3E90000FFF721BE00BF4B
:10709C00D8E60320CCE603200000FFFF10B5044621
:1070AC000068FFF7C1FE204610BD10B5044600680D
:1070BC0008B1FFF7B9FE0023C4E90133236010BD0A
:1070CC0038B504460D4600680131FFF7B5FE10B126
:1070DC00C4E90005012038BD10B50368044623B18E
:1070EC0043688B4201D3012010BD2046FFF7E8FF17
:1070FC000028F9D0A368002BF5D122681370F2E7B1
:10710C0037B50D46114601920446FFF7E5FF019A8B
:10711C0028B92046FFF7C9FF204603B030BDA26056
:10712C002946206801F0DCF92268A3680021D154BB
:10713C00F2E7002313B5C0E9003304468360037300
:10714C0041B10846019101F019FA01990246204615
:10715C00FFF7D6FF204602B010BD13B5044659B157
:10716C000846019101F00AFA019902462046FFF700
:10717C00C7FF204602B010BDFFF797FFF9E7026882
:10718C000B46096862B141B9806860B110787047EC
:10719C00986840B1097848427047104601F0E4B94C
:1071AC000029F5D10846704708B582688B689A4269
:1071BC0005D1FFF7E4FFB0FA80F0400908BD0020CC
:1071CC00FCE708B582683AB921B10878B0FA80F0CA
:1071DC00400900E0012008BD006809B90078F5E716
:1071EC0001F0C2F9F2E710B54368013B0446436075
:1071FC0063B903689B689847A368013BA3602BB9EC
:10720C0023682046DB68BDE81040184710BD00001D
:10721C00024800230360FFF7F3BB00BFDCE603204A
:10722C00F8B506460D468F180024BD420CD03368C5
:10723C0015F8011B9B6830469847031E01DB1C4464
:10724C00F3E7002C08BF1C462046F8BD13B50446D6
:10725C00084659B1019101F091F923680199DB6855
:10726C000246204602B0BDE81040184702B010BDDF
:10727C0008B5FFF7EBFF08BD03689B68184738B5E6
:10728C000D210546FFF7F8FF0A2104462846FFF7B3
:10729C00F3FF204438BD38B50546FFF7D7FF044649
:1072AC002846FFF7ECFF204438BD30B58BB00023E7
:1072BC00012A8DF8243098BF0A2209AC0D46B1FB87
:1072CC00F2F101FB125303F0FF03092B94BF30338F
:1072DC003733DBB2AA4204F8013DEFD92146FFF760
:1072EC00B5FF0BB030BD2DE9F04186B000AF0546BF
:1072FC000E46381D142114463B60FFF7ADFD1328D4
:10730C000ED8391D2846FFF7A1FF04461EB12846AA
:10731C00FFF7B5FF044420461837BD46BDE8F081A1
:10732C0000F1080323F00703E846ADEB030D2246FA
:10733C00411C3B686846FFF78FFD69462846FFF7FE
:10734C0085FF0446C546E1E710B50446FFF730FB60
:10735C00E060236820465B699847002808DAFFF74D
:10736C0027FBE368C01AA3689842F2D34FF0FF30B2
:10737C0010BD2DE9F04107460C468E180D46B5425E
:10738C00A5EB040807D03846FFF7DEFF031E02DB2F
:10739C0005F8013BF3E74046BDE8F081014B024A9A
:1073AC001A607047E0E603209C980B00024B1A68A9
:1073BC00024B1A60704700BF10E50320E4E603207F
:1073CC000021FFF78DBC000010B5044B0360044690
:1073DC00806908B1FFF707FF204610BD94990B0098
:1073EC0010B50446FFF7F0FF20461C21FCF751FEB8
:1073FC00204610BD014B00229A607047E8E603203E
:10740C00014B1860704700BF14E5032008B50B4B07
:10741C0043B100F085F903681B699847002801DD2A
:10742C00AFF30080064B43B100F0D8FE03681B6934
:10743C009847002801DDAFF3008008BD0000000074
:10744C000000000008B5FFF7E1FFFFF7B1FA014BB0
:10745C00186008BD40E703200548064A064908B5F0
:10746C00121A01F03DF8054B054A1A6008BD00BF21
:10747C0000F4032004F40320249D0B0000F40320EB
:10748C001E1C279A07B5002300931A466FF077014C
:10749C00FFF740FC03B05DF804FB000007B5438820
:1074AC000A2B08D0502B0BD1094B1B684BB103B0E6
:1074BC005DF804EB1847FFF7E5FF03B05DF804FB3C
:1074CC00002300931A466FF07701FFF723FCF4E7D3
:1074DC00FCE6032010B512480021FFF7D5FC114B38
:1074EC001A68114B9A42114B0CBF012200221A70E0
:1074FC0001D0FFF7B1FFFFF74BFA044601F006F895
:10750C000B4B13B12046AFF3008000210848FFF766
:10751C007BFCBDE8104007480021FFF7F1BB00BF22
:10752C000D740B0000F403201E1C279AF8E60320B0
:10753C0000000000A9740B00704710B51821044618
:10754C00FCF7A7FD204610BDF0B5037D062B8DB0D2
:10755C000E4600F104074FF0000412D000F10805AC
:10756C0015F8011D0A223046FFF79FFEAF42044476
:10757C0019D0002CF4D02E213046FFF77DFE0444A8
:10758C00EEE72F236A4639460A208DF80040FFF7B4
:10759C003FFA684600F0F2FF33680246DB68694642
:1075AC0030469847044620460DB0F0BD10B5054B4B
:1075BC000446112240F8043B002100F09FFF2046B6
:1075CC0010BD00BFC4980B000346074A10B543F822
:1075DC00042B01F1100251F8044B43F8044B914277
:1075EC00F9D10A781A7010BDC4980B00037D042BD6
:1075FC0004D14068003818BF01207047062B07D112
:10760C0043683BB983682BB9C3681BB90069F1E7C0
:10761C00002070470120704710B59DF8084044EADF
:10762C00032343EA024242EA0161042341600375E9
:10763C0010BD000013B5044C04609DF8104000947C
:10764C00FFF7EAFF02B010BDC4980B0007B5064B5C
:10765C000360CB7800938B784A780978FFF7DCFFCE
:10766C0003B05DF804FB00BFC4980B004174704775
:10767C007047704708B50021007CFFF701FB40EA1A
:10768C00E07008BD08B50121007CFFF7F9FA40EA6B
:10769C00E07008BD08B5007CFFF7EAFA20EAE0705C
:1076AC0008BD08B5007CFFF7DBFA20EAE07008BDE6
:1076BC0013B50446007C0191FFF7DAFA0028019912
:1076CC0001DC607C20B1207CFFF7E2FA20EAE0705C
:1076DC0002B010BD007CFFF7E3BA10B514210446CC
:1076EC00FCF7D7FC204610BD10B54FF47A73044656
:1076FC0008460021C4E90113044B236001232074C4
:10770C0063741146FFF7A4FA204610BDD8980B00FD
:10771C0010B514220446002100F0F0FE204610BDE6
:10772C0010B50F4C88B003A8FFF7F2FF2178BFF318
:10773C005B8F11F001010FD120460191FCF7B8FCD1
:10774C00019948B103AA0748FFF7CEFF2046FCF782
:10775C00B4FC054800F0B6FE024808B010BD00BFEE
:10776C0000E7032004E703207D760B00704741748B
:10777C00704708B5007CFFF793F920EAE07008BD6C
:10778C0008B5007CFFF764F920EAE07008BD08B585
:10779C00007CFFF76DF940EAE07008BD08B5007C8D
:1077AC00FFF75EF940EAE07008BD007CFFF768B9AE
:1077BC0037B5457C04462DB1207C03B0BDE8304084
:1077CC00FFF73EB9007C0191FFF76AF90028019997
:1077DC00F2DC284603B030BD10B514210446FCF78A
:1077EC0058FC204610BD000010B54FF47A730446C7
:1077FC00084611460022C4E90123044B23600123EF
:10780C0020746374FFF754F9204610BD08990B00DF
:10781C007047F8B5064615460C468F18BC4206D084
:10782C00336814F8011B9B6830469847F6E72846E6
:10783C00F8BD007C0022FFF763B9007C0021FFF744
:10784C0067B9007C0021FFF76BB9007C0021FFF7C2
:10785C006FB9007C0021FFF773B910B514210446F1
:10786C00FCF717FC204610BD10B54FF47A73044694
:10787C0008460021C4E90113034B23602074114610
:10788C00FFF76EF9204610BD38990B00007C0022E2
:10789C00FFF716B90023007C1A461946FFF718B9F2
:1078AC00007C0022FFF71CB9C9B2FFF7F9BF007CBE
:1078BC000022FFF71DB90121FFF7F9BF13B50368CB
:1078CC008DF80710DC6B01224FF0FF330DF107012F
:1078DC00A04702B010BD10B40368DC6B4FF0FF334F
:1078EC00A4465DF8044B604713B5134602688DF847
:1078FC000710D46B0DF107010122A04702B010BD97
:10790C0010B54369B3F88620B3F884309A42044624
:10791C0008D06369B3F88420511CA3F88410134475
:10792C00187910BD03681B6998470028F1D14FF0F6
:10793C00FF30F6E7704743691868C043C00F7047C3
:10794C0070470000064B994210B500F10C0405D0AD
:10795C00084600F0A5FC002808BF0024204610BDF6
:10796C0094980B0010B5AC210446FCF792FB204612
:10797C0010BDAC21FCF78DBB2DE9F0414FF0000898
:10798C0086B01C46C0F8048005460E461746414694
:10799C00102202A800F0B2FD631C09D04FF47A73D8
:1079AC00B4FBF3F203FB1244CDE902285C430494CC
:1079BC00686910230093006802AB41F2050240F69F
:1079CC00FF71FFF7D5F8002807DAFFF74DFA0368C7
:1079DC006B60002006B0BDE8F08168690023006888
:1079EC003A463146FFF7E4F8031EEEDB1846F1E7A2
:1079FC0030B587B0044601AD6846FFF727FE0FCDC2
:107A0C0004340FC42B68237007B030BD70B54D69BA
:107A1C00054B04468C3544F8043B06460FCD0FC489
:107A2C002B682370304670BDC4980B002DE9F043D1
:107A3C009846036893B00D460024DB6A0646174649
:107A4C00984728466B46224621460094FEF750FF85
:107A5C000546002863D1009B002B4BD05B69002BA3
:107A6C0048D006A8FFF7A2FD009B5C696378022B47
:107A7C0004D1211D06A8FFF7BBFF26E00A2B24D159
:107A8C001122294601A800F039FDA368002B38D03B
:107A9C0004F108030DF1040C183418685968624697
:107AAC0003C20833A3429446F7D1062301A90CA8BC
:107ABC008DF81430FFF788FD0DF1340CBCE80F0085
:107ACC0007AC0FC4DCF80030237006A8FFF78EFD5E
:107ADC0080B1336807ADD3F82090124B0C930FCDC7
:107AEC000DAC0FC42B6823703A4643460CA93046A4
:107AFC00C84705460098FEF7F3FE284613B0BDE8CC
:107B0C00F083E368002BC3D14FF6FF70D4F81090CC
:107B1C00FEF786FF8145BBD104F11401AAE7254687
:107B2C00E8E700BFC4980B0038B543691A68002A0F
:107B3C00054610DAB3F88620B3F884309A420AD19D
:107B4C0003681B699847044628B92B682846DB6AEA
:107B5C009847204638BD0120FCE710B54369B3F8BF
:107B6C008620B3F884309A42044605D06369B3F892
:107B7C0084201344187910BD03681B6998470028AA
:107B8C00F4D14FF0FF30F6E7F8B543691746B3F878
:107B9C008620B3F884309A4205460E4616D06969A1
:107BAC00B1F88430B1F88640E41ABC4228BF3C4698
:107BBC00043322461944304600F092FC6A69B2F84C
:107BCC0084302344A2F884302046F8BD03681B6936
:107BDC0098470028E3D14FF0FF34F5E742690023C2
:107BEC00A2F884304269A2F8863070472DE9F04142
:107BFC001F4603680C46DB6A8AB005461646984752
:107C0C00237DD5F81480042B0CBF02200A200622F9
:107C1C000121FEF7D5FFC8F800006B691B68002B2B
:107C2C0008DA2B682846DB6A0024984720460AB0FD
:107C3C00BDE8F0812846FFF7D1FFB7B1002303A9B7
:107C4C00F8B20393ADF81030FEF79AFE0028E8D195
:107C5C00686906230093006803AB41F20B0240F6FF
:107C6C00FF71FEF785FF0028DBD11C22002103A841
:107C7C0000F044FC237D042B1DD14FF407733046D8
:107C8C00ADF80C30FEF7D4FEADF80E006068FEF7D0
:107C9C00C7FE04906B691C22186803A9FEF778FFD5
:107CAC000028BED104340FCC6D698C350FC5236808
:107CBC002B700124BAE740F61C233046ADF80C308B
:107CCC00FEF7B6FE05AEADF80E00231D04F1140749
:107CDC0018685968324603C20833BB421646F7D1BE
:107CEC00D8E7000030B54269B2F886308BB0044654
:107CFC002BB1B2F884209A4201D1FFF76FFF616972
:107D0C000868002818DBB1F886507F2D14D8043190
:107D1C000823C5F180022944FEF742FF002813DD39
:107D2C006369B3F886200AB9A3F884206369B3F8B1
:107D3C0086201044A3F886006369B3F88600B3F874
:107D4C008430C01A0BB030BDFFF78EF803680B2BD4
:107D5C00F2D0FFF789F803680B2BEDD02023002518
:107D6C00CDE90235FFF780F803680193084B094908
:107D7C00009302AA2B463220FEF7A2FF6369186813
:107D8C00FEF7FEFE63694FF0FF321A60D4E700BFC6
:107D9C005F990B0058990B0010B54369044618689D
:107DAC00002801DBFEF7ECFE63694FF0FF321A602E
:107DBC006069112200218C3000F0A0FB2046BDE848
:107DCC001040FFF70BBF10B5002304460160C0F84C
:107DDC0084308830FFF7EAFB204610BD73B50023D2
:107DEC004FF47A72C0E901320E4A036102604361BA
:107DFC000446AC200191FCF746F9051E05F10C0672
:107E0C0008D00123C5E90133074B01992B6030469B
:107E1C00FFF7D9FF2046C4E90565FFF7DFFE02B086
:107E2C0070BD00BF94990B0078990B0010B54FF002
:107E3C00FF310446FFF7D2FF204610BD10B50446B3
:107E4C000068002801DBFEF79BFE204610BD0C30BD
:107E5C00FFF7F4BF002240681146FEF77DBF0022F9
:107E6C0040681146FEF798BF002240681146FEF7A5
:107E7C00A3BF40680022FEF797BF4068002281F044
:107E8C000101FEF781BF002340681A461946FEF730
:107E9C0073BF002340681A461946FEF765BF0022DF
:107EAC0040681146FEF748BF406800220221FEF7E9
:107EBC004BBF002340681A46FEF736BF024B042224
:107ECC005A60024A1A60704718E70320E0990B00C9
:107EDC00002340681A46FEF727BF406800220221A3
:107EEC00FEF732BF002240681146FEF725BF002284
:107EFC0040681146FEF730BF002340681A46194609
:107F0C00FEF732BF002340681A461946FEF734BF0D
:107F1C0040680021FEF758BF40680021FEF75CBFA7
:107F2C004068002281F00101FEF72EBF406800225C
:107F3C00FEF73ABF002240681146FEF73DBF002213
:107F4C0040681146FEF728BF2DE9F04395B0144662
:107F5C000D460746FFF72AFB00211C220DA80091B5
:107F6C0000F0CCFA40230C9320466B460CAA00215F
:107F7C00FEF7BEFC044600284BD10246012168687E
:107F8C00FEF7EAFE0221804622466868FEF7E4FE10
:107F9C00009E81462146002E3BD0002939D17368C2
:107FAC00022B03D00A2B11D0F669F4E7B8F1000FBD
:107FBC00FAD0716906A8043107ADFFF747FB0FCD66
:107FCC003C1D0FC42B6823704146EDE7B9F1000F3F
:107FDC00EAD07469102201A800F090FA06238DF8FB
:107FEC00143001AD04F108031834186859682A4696
:107FFC0003C20833A3421546F7D101A906A807AD61
:10800C00FFF7E2FA0FCD3C1D0FC42B6823704946D5
:10801C00CAE70098FEF764FC384615B0BDE8F0835B
:10802C00024B034A1A6000225A60704720E7032073
:10803C001C9A0B00232813B502D9002002B010BDE6
:10804C00A0F10B03022B1AD8174C2178BFF35B8FCE
:10805C0011F001010BD120460191FCF729F801998F
:10806C0028B11248FEF75CFF2046FCF726F80F4BB0
:10807C001878FEF7C5FD0028DFD10120DEE70128C6
:10808C0009D800F0E7F80021007CFEF761FD80F0D4
:10809C000100C0B2D2E709380128EED800F09EF8F2
:1080AC00007CFEF7F5FCF2E7B8E60320BCE6032003
:1080BC00232838B504460D460AD8FF2908D0FFF707
:1080CC00B9FF28B129462046BDE83840FEF720BC50
:1080DC0038BD38B504460D46FEF722FCFF2810D0FB
:1080EC00062804D84D2323FA00F0C30709D42046F0
:1080FC00FFF7A0FF28B129462046BDE83840FEF71F
:10810C0017BC38BD10B50446FEF70AFC031FDBB2E2
:10811C00012B08D92046FFF78DFF20B12046BDE882
:10812C001040FEF70DBC002010BD0D2810B5044604
:10813C009CBF0E34A4B22046FFF77CFF50B1032144
:10814C002046FEF7DDFB032804D12046BDE8104095
:10815C00FEF706BC002010BD38B504460D46FFF7EF
:10816C0069FFF0B104212046FEF7CAFB042805D1B3
:10817C00A9B22046BDE83840FEF7EABB02212046F2
:10818C00FEF7BEFB02280CD12046FEF7C9FB0128E6
:10819C0001D0042805D129462046BDE83840FEF719
:1081AC00E7BB38BD7047000038B5044614252A4695
:1081BC00002100F0A3F92580402507492581284698
:1081CC00258200F06BF804496060284600F066F8E0
:1081DC00E060204638BD00BF509A0B0030B50E4D04
:1081EC002978BFF35B8F11F0010487B011D12846B9
:1081FC00FBF75EFF68B101A8FFF7D6FF01AA214685
:10820C000648FFF7F1FA2846FBF757FF044800F041
:10821C0059F9024807B030BD28E703202CE70320AA
:10822C00B1810B007047000038B52025142304469B
:10823C000360856005610649284600F02FF8044963
:10824C006060284600F02AF8E060204638BD00BF88
:10825C00509A0B0030B50E4D2978BFF35B8F11F09F
:10826C00010487B011D12846FBF722FF68B101A8A1
:10827C00FFF7DAFF01AA21460648FFF7F5FA284670
:10828C00FBF71BFF044800F01DF9024807B030BD96
:10829C0044E7032048E7032031820B00FBF7F5BECF
:1082AC00014900F0F9B800BF6C9A0B007FB50024AF
:1082BC001023CDE90234036815469E6912686B469B
:1082CC00CDE90044B0479DF8043003F00603062BBB
:1082DC0003BF009B2B600120204604B070BD0098AA
:1082EC00904214BF012006207047000010B5034BCC
:1082FC000360044600F0CDF8204610BDAC9A0B008C
:10830C0010B50446FFF7F2FF20460821FBF7C1FE2B
:10831C00204610BD2DE9F0411F46DDE90834DDF89B
:10832C00188098450646154607D1079900F0B4F811
:10833C0018B165710020BDE8F0813946304600F077
:10834C00ABF80028F6D00123C4F800802571A37186
:10835C00F0E738B515461C4600F09EF820B108230E
:10836C00E36006232560237138BD73B505460C46C2
:10837C0001921E4600F090F850B9032E08D82368DD
:10838C00019A5B692946204602B0BDE87040184747
:10839C0002B070BD10B5034B03600446FFF7A6FF97
:1083AC00204610BD0C9B0B0010B50446FFF7F2FFE6
:1083BC0020460C21FBF76DFE204610BDF7B5089F3B
:1083CC00974205460E4614460AD0A86802680897DC
:1083DC00156A31462246AC4603B0BDE8F040604712
:1083EC001946019300F058F8019B0028EDD00620A7
:1083FC0003B0F0BD2DE9F14F0D461946DDE90A4BEE
:10840C00DDE90CA681461746984600F045F890B178
:10841C00002D3460377109DB61198A450CBF0621C8
:10842C000121B171002001B0BDE8F08F0235F9D106
:10843C000123B371F6E7544506D15946484600F07E
:10844C002BF808B17771EDE7D9F808000368CDE98E
:10845C000CA6CDE90A4BDC693A4643462946A446AC
:10846C0001B0BDE8F04F60472DE9F04107460C46DE
:10847C0015461E46FFF76DFF48B9B86803689F693B
:10848C002A4633462146BC46BDE8F0416047BDE86C
:10849C00F081704700207047814208B50ED04068CB
:1084AC0003782A2B0CD049680B782A2B08BF013192
:1084BC0000F05AF8B0FA80F0400908BD0120FCE742
:1084CC000020FAE7002301461A46184600F0FEB8D1
:1084DC000A22002100F0F0B80A22002100F0ECB8CA
:1084EC000A44914200F1FF3300D1704710B511F8E6
:1084FC00014B03F8014F9142F9D110BD02440346E0
:10850C00934200D1704703F8011BF9E738B5104BC3
:10851C001D68AB6B0446B3B91820FEF77DFC024610
:10852C00A86320B90B4B0C484221FEF7A5FC0B4964
:10853C000B4BC0E900130B4B83600B238381002191
:10854C000120C2E90401AB6B00221C615A6138BDE9
:10855C0014E50320459B0B005C9B0B000E33CDAB4D
:10856C0034126DE6ECDE050010F8012B11F8013B1E
:10857C00012A28BF9A42F7D0D01A7047034613F845
:10858C00012B002AFBD1181A0138704710B501399C
:10859C00034632B111F8014F03F8014B013A002C9C
:1085AC00F7D11A440021934200D110BD03F8011BEE
:1085BC00F9E70000012B2DE9F04701D0242B06D957
:1085CC00FEF752FC162303600020BDE8F087DFF8AD
:1085DC00E4C00D462E4615F8014B14F80C7017F03C
:1085EC000807F7D12D2C32D12C780127B51C002B84
:1085FC005BD0102B09D1302C07D12C7804F0DF0480
:10860C00582C4DD16C781023023507F1004808F135
:10861C00FF384FF0000CB8FBF3F9664603FB198AE0
:10862C00A4F1300EBEF1090F16D87446A34224DD16
:10863C00BCF1000F1EDBB1451CD301D1A24519DBE7
:10864C0006FB03464FF0010C15F8014BE8E72B2C09
:10865C0004BF2C78B51CCAE7A4F1410EBEF1190F6A
:10866C0001D8373CE2E7A4F1610EBEF1190F04D832
:10867C00573CDBE74FF0FF3CE6E7BCF1000F05DAB7
:10868C0022230360464642B930469EE707B1764244
:10869C00002AF9D0BCF1000F00D0691E1160F3E77D
:1086AC003024002BB1D10823AFE7302CA5D00A23FE
:1086BC00ABE700BFDA9B0B0013460A4601460248A3
:1086CC000068FFF777BF00BF14E503202DE9F843DE
:1086DC00DFF8B8800646D8F800001F460D469146D4
:1086EC0000F056F8254B1C6834B9254C1C60254B02
:1086FC0013B11B68C4F8883063681F2B07DDD8F8EA
:10870C00000000F047F84FF0FF30BDE8F8834EB39F
:10871C00D4F8880088B91C4B23B9D8F8000000F0B5
:10872C0038F8F0E74FF48470FEF776FB0028F4D0AD
:10873C000023C0E94033C4F88800636840F82390F4
:10874C0001229A4000EB8301D0F800311343C0F8AA
:10875C000031022EC1F8807002BFD0F804311343EF
:10876C00C0F804316368D8F800005A1C0233626008
:10877C0044F8235000F00EF80020C6E7E8E7032089
:10878C005CE7032000000000256E0B0078E5032059
:10879C0070477047704700001D400B0059400B009C
:1087AC0081400B0085400B000000000043616C6CA5
:1087BC00206F6E2070757265207669727475616CAD
:1087CC0000310030006100427574746F6E204120DE
:1087DC0077617320707265737365642E006200425A
:1087EC007574746F6E20422077617320707265739C
:1087FC007365642E00427574746F6E20432077612C
:10880C007320707265737365642E00256900256C86
:10881C00690063687269737469616E69747900695F
:10882C006E006F75740070776D006477006177006F
:10883C0063687269737469616E6974792F6C6564AD
:10884C000063687269737469616E6974792F6275FB
:10885C0074746F6E0048454C4C4F204A65737573A9
:10886C00210063687269737469616E6974792F622F
:10887C007574746F6E73004B30337555444270329F
:10888C00666D307861624853646866326762763030
:10889C0072477330387266006C61622E746865774B
:1088AC00636C2E636F6D00626C6E6B696E66007626
:1088BC00657200312E312E3000682D6265617400B6
:1088CC00343500627566662D696E003130323400C5
:1088DC00646576005061727469636C6520417267DF
:1088EC006F6E006275696C64004A756C20203620CE
:1088FC00323032322031333A31333A3431000000E5
:10890C0064656661756C7420004D5342004C534293
:10891C00003C53504953657474696E6773206465E9
:10892C006661756C743E003C5350495365747469B0
:10893C006E67732025732575202573204D4F444594
:10894C0025753E0000000000003E5B4F5B3E3E6B19
:10895C004F6B3E1C3E7C3E1C183C7E3C181C577DCD
:10896C00571C1C5E7F5E1C00183C1800FFE7C3E719
:10897C00FF0018241800FFE7DBE7FF30483A060E2B
:10898C002629792926407F050507407F05253F5A72
:10899C003CE73C5A7F3E1C1C08081C1C3E7F1422E2
:1089AC007F22145F5F005F5F06097F017F0066898D
:1089BC00956A606060606094A2FFA29408047E04D3
:1089CC000810207E201008082A1C08081C2A0808F9
:1089DC001E101010100C1E0C1E0C30383E383006B9
:1089EC000E3E0E06000000000000005F00000007B5
:1089FC00000700147F147F14242A7F2A12231308E3
:108A0C00646236495620500008070300001C2241BE
:108A1C00000041221C002A1C7F1C2A08083E080862
:108A2C000080703000080808080800006060002012
:108A3C00100804023E5149453E00427F40007249F5
:108A4C004949462141494D331814127F1027454599
:108A5C0045393C4A494931412111090736494949AF
:108A6C0036464949291E000014000000403400001D
:108A7C000008142241141414141400412214080286
:108A8C00015909063E415D594E7C1211127C7F49F9
:108A9C004949363E414141227F4141413E7F49494E
:108AAC0049417F090909013E414151737F0808087A
:108ABC007F00417F41002040413F017F081422414B
:108ACC007F404040407F021C027F7F0408107F3EA5
:108ADC004141413E7F090909063E4151215E7F0912
:108AEC00192946264949493203017F01033F404079
:108AFC00403F1F2040201F3F4038403F6314081464
:108B0C006303047804036159494D43007F4141419B
:108B1C000204081020004141417F0402010204407C
:108B2C0040404040000307080020545478407F2800
:108B3C004444383844444428384444287F385454F6
:108B4C00541800087E090218A4A49C787F08040419
:108B5C007800447D40002040403D007F10284400B8
:108B6C0000417F40007C047804787C080404783849
:108B7C0044444438FC1824241818242418FC7C0879
:108B8C00040408485454542404043F44243C4040F6
:108B9C00207C1C2040201C3C4030403C44281028A9
:108BAC00444C9090907C4464544C440008364100F2
:108BBC000000770000004136080002010204023C6C
:108BCC002623263C1EA1A161123A4040207A38543B
:108BDC0054555921555579412254547842215554B4
:108BEC00784020545579400C1E5272123955555507
:108BFC0059395454545939555454580000457C41F2
:108C0C000002457D420001457C407D1211127DF031
:108C1C00282528F07C545545002054547C547C0A5B
:108C2C00097F4932494949323A4444443A324A4824
:108C3C0048303A4141217A3A42402078009DA0A028
:108C4C007D3D4242423D3D4040403D3C24FF24247A
:108C5C00487E4943662B2FFC2F2BFF0929F620C099
:108C6C00887E090320545479410000447D413048EA
:108C7C00484A32384040227A007A0A0A727D0D192D
:108C8C00317D2629292F28262929292630484D408F
:108C9C0020380808080808080808382F10C8ACBA8B
:108CAC002F102834FA00007B000008142A1422220A
:108CBC00142A14085500550055AA55AA55AAFF5553
:108CCC00FF55FF000000FF00101010FF00141414DB
:108CDC00FF001010FF00FF1010F010F0141414FC23
:108CEC00001414F700FF0000FF00FF1414F404FC40
:108CFC00141417101F10101F101F1414141F001021
:108D0C001010F0000000001F101010101F10101099
:108D1C0010F010000000FF101010101010101010A8
:108D2C00FF10000000FF140000FF00FF00001F10E8
:108D3C00170000FC04F414141710171414F404F4A2
:108D4C000000FF00F714141414141414F700F71493
:108D5C001414171410101F101F141414F4141010E2
:108D6C00F010F000001F101F0000001F1400000086
:108D7C00FC140000F010F01010FF10FF141414FF7E
:108D8C00141010101F00000000F010FFFFFFFFFF79
:108D9C00F0F0F0F0F0FFFFFF0000000000FFFF0F0D
:108DAC000F0F0F0F3844443844FC4A4A4A347E02B1
:108DBC00020606027E027E02635549416338444432
:108DCC003C04407E201E2006027E020299A5E7A5E7
:108DDC00991C2A492A1C4C7201724C304A4D4D3058
:108DEC003048784830BC625A463D3E494949007E7D
:108DFC000101017E2A2A2A2A2A44445F4444405114
:108E0C004A444040444A51400000FF0103E080FFC7
:108E1C00000008086B6B083612362436060F090F53
:108E2C0006000018180000001010003040FF01016F
:108E3C00001F01011E00191D1712003C3C3C3C0098
:108E4C000000000000000000000000000000000016
:108E5C000000000029540B002D720B00A5400B00E4
:108E6C002F4E0B00314E0B00634E0B003F4E0B0090
:108E7C00514E0B00714D0B002F4E0B005B500B0035
:108E8C0059500B007B4E0B00B94E0B00F34E0B00F0
:108E9C00394F0B00554F0B00D94F0B000000000051
:108EAC000000000039550B0059550B0029540B00DC
:108EBC002D720B00ED5F0B002F4E0B00314E0B0093
:108ECC00634E0B003F4E0B00514E0B00714D0B00CF
:108EDC002F4E0B005B500B008B610B0033670B00AC
:108EEC00E5660B00F34E0B00394F0B00554F0B0092
:108EFC00D94F0B0000044D5154540400064D5149F8
:108F0C007364700300000000000000001D4D0B0096
:108F1C00F14C0B00F34C0B00000000000001800032
:108F2C0000000000000000000380000000000000B2
:108F3C0000000007C000000000000000000007C097
:108F4C000000000000000000000FC0000000000046
:108F5C00000000001FE00000000000000000001FE7
:108F6C00E00000000000000000003FE000000000F6
:108F7C0000000000003FF0000000000000000000B6
:108F8C007FF0000000000000001FF87FF0000000E0
:108F9C00000000003FFE7FF0000000000000003FDA
:108FAC00FF7FF0000000000000001FFFFBE000004E
:108FBC0000000000000FFFF9FFC0000000000000DF
:108FCC000FFFF9FFF800000000000007FFF1FFFFA2
:108FDC0000000000000003FC73FFFF800000000095
:108FEC000001FE3FFFFF80000000000000FF1E0F8D
:108FFC00FF000000000000007FFE1FFC00000000CE
:10900C000000003FFFFFF8000000000000000FDF31
:10901C00FFE0000000000000001F19FFC00000006E
:10902C00000000003F3CFF00000000000000007E3C
:10903C007CF800000000000000007FFE7C000000B7
:10904C000000000000FFFFFC00000000000000001A
:10905C00FFFFFE0000000000000000FFFFFE00000C
:10906C00000000000001FFEFFE0000000000000007
:10907C0001FFCFFE0000000000000003FF07FE0010
:10908C0000000000000003FC07FE000000000000D0
:10909C000003F003FE00000000000000018000FE51
:1090AC00000000000000000000007E000000000036
:1090BC0000000000003E0000000000000000000066
:1090CC000C000000000000078000FC000003C00042
:1090DC000000078001FC000003C0000000078001B5
:1090EC00FC000003C0000000078001E00000001E2F
:1090FC00000000078001E00000001E007FE3F79FE6
:10910C00F9FDE7787BDFC0FFF7FFBFFDFDFF787B44
:10911C00DFC0FFF7FFBFFDFDFF787BDFC0F0F787F7
:10912C00BC3DE1FF787BDE00F0F787BC3DE1F078D9
:10913C007BDE0000F787803DE1E0787BDE007FF787
:10914C00879FFDE1E0787BDE00FFF787BFFDE1E064
:10915C00787BDE00F0F787BC3DE1E0787BDE00F049
:10916C00F787BC3DE1E0787BDE00F0F787BC3DE1A2
:10917C00E0787BDE00FFF7FFBFFDE1E07FFBDFC0A7
:10918C00FFF7FFBFFDE1E07FFBDFC07CF3F39F3D0A
:10919C00E1E03E7BCFC000000000000000000000BA
:1091AC0000FFFFFFFFFFFFFFFFFFFFC0FFFFFFFF01
:1091BC00FD68DB111A31C0FFFFFFFFFD2B5AFB6A64
:1091CC00EFC0FFFFFFFFFD4B5B3B1A33C0FFFFFF00
:1091DC00FFFD6B5BDB6AFDC000006000000000005F
:1091EC00000000000000000000E000000000000093
:1091FC000000000000000001E00000000000000082
:10920C0000000000000001F0000000000000000061
:10921C00000000000003F00000000000000000004F
:10922C000000000007F0000000000000000000003B
:10923C0000000007F8000000000000000000000023
:10924C0000000FF800000003C0007E000001E000E9
:10925C007F0FF800000003C000FE000001E000FFDB
:10926C00EFF800000003C000FE000001E000FFFF6B
:10927C00F800000003C000F00000000F007FFE7F2C
:10928C00C0000003C000F00000000F003FFE7FF89C
:10929C003FF1FBCFFCFEF3BC3DEFE01FFE7FFF7FF9
:1092AC00FBFFDFFEFEFFBC3DEFE01FC6FFFF7FFBB9
:1092BC00FFDFFEFEFFBC3DEFE00FE3C7FE787BC394
:1092CC00DE1EF0FFBC3DEF0007FF87FC787BC3DEA2
:1092DC001EF0F83C3DEF0001FFFFF0007BC3C01E09
:1092EC00F0F03C3DEF0001F37FE03FFBC3CFFEF01D
:1092FC00F03C3DEF0003E33F807FFBC3DFFEF0F06B
:10930C003C3DEF0007E73C00787BC3DE1EF0F03CF1
:10931C003DEF0007FFBE00787BC3DE1EF0F03C3D46
:10932C00EF0007FFFE00787BC3DE1EF0F03C3DEF44
:10933C00000FFFFE007FFBFFDFFEF0F03FFDEFE0D4
:10934C000FFFFF007FFBFFDFFEF0F03FFDEFE00FB4
:10935C00F9FF003E79F9CF9EF0F01F3DE7E01FF1D9
:10936C00FF0000000000000000000000001F80FF54
:10937C00007FFFFFFFFFFFFFFFFFFFE01C007F00F0
:10938C007FFFFFFFFEB46D888D18E000001F007F8B
:10939C00FFFFFFFE95AD7DB577E000000F007FFF6E
:1093AC00FFFFFEA5AD9D8D19E0000006007FFFFFBD
:1093BC00FFFEB5ADEDB57EE0000000000000000042
:1093CC00C15F0B00D95F0B0029540B002D720B00F1
:1093DC00ED5F0B002F4E0B00314E0B00634E0B005C
:1093EC003F4E0B00514E0B00714D0B002F4E0B00DE
:1093FC005B500B008B610B0033670B00E5660B00B9
:10940C00F34E0B00394F0B00554F0B00D94F0B008F
:10941C000080C0E0F0F8FCFE000103070F1F3F7F47
:10942C00AED580A8D300408D2000A1C8DB40A4A6F7
:10943C002EAFDA02818FDA1281DA02812200FF214B
:10944C0000000000BD680B00BD680B00BD680B0080
:10945C00BD680B00BD680B00BD680B00BD680B0040
:10946C00BD680B00BD680B00BD680B00BD680B0030
:10947C00BD680B00BD680B00BD680B00BD680B0020
:10948C00BD680B00BD680B00BD680B00BD680B0010
:10949C00BD680B00BD680B00BD680B00BD680B0000
:1094AC00BD680B00BD680B00BD680B00BD680B00F0
:1094BC00BD680B00BD680B00BD680B00BD680B00E0
:1094CC00BD680B00BD680B00BD680B00BD680B00D0
:1094DC00BD680B00BD680B00BD680B00BD680B00C0
:1094EC00BD680B00BD680B00BD680B00BD680B00B0
:1094FC00BD680B00BD680B00BD680B00BD680B00A0
:10950C00BD680B00BD680B00BD680B00BD680B008F
:10951C00BD680B00BD680B00BD680B00BD680B007F
:10952C00BD680B00BD680B00BD680B00BD680B006F
:10953C00BD680B00BD680B00BD680B00BD680B005F
:10954C00BD680B00BD680B00BD680B00BD680B004F
:10955C00BD680B00BD680B00BD680B00BD680B003F
:10956C00BD680B00BD680B00BD680B00BD680B002F
:10957C00BD680B00BD680B00BD680B00BD680B001F
:10958C00BD680B00BD680B00BD680B00BD680B000F
:10959C00BD680B00BD680B00BD680B00BD680B00FF
:1095AC00BD680B00BD680B00BD680B00BD680B00EF
:1095BC00BD680B00BD680B00BD680B00BD680B00DF
:1095CC00BD680B00BD680B00BD680B00BD680B00CF
:1095DC00BD680B00BD680B00BD680B00BD680B00BF
:1095EC00BD680B00BD680B00BD680B00BD680B00AF
:1095FC00BD680B00BD680B00BD680B00BD680B009F
:10960C00BD680B00BD680B00BD680B00BD680B008E
:10961C00BD680B00BD680B00BD680B00BD680B007E
:10962C00BD680B00BD680B00BD680B00BD680B006E
:10963C00BD680B00BD680B00BD680B00BD680B005E
:10964C00BD680B00BF680B00E9420B00BF680B0044
:10965C00BF680B00BF680B00BF680B00BF680B0036
:10966C00BF680B00BF680B00BF680B00BF680B0026
:10967C00BF680B00BF680B00BF680B00BF680B0016
:10968C00BF680B00BF680B00BF680B00BF680B0006
:10969C00BF680B00BF680B00BF680B00BF680B00F6
:1096AC00BF680B00BF680B00BF680B00BF680B00E6
:1096BC00BF680B00BF680B00BF680B00BF680B00D6
:1096CC00BF680B00BF680B00BF680B00BF680B00C6
:1096DC00BF680B00BF680B00BF680B00BF680B00B6
:1096EC00BF680B00BF680B00BF680B00BF680B00A6
:1096FC00BF680B00BF680B00BF680B00BF680B0096
:10970C00BF680B00BF680B00BF680B00BF680B0085
:10971C00BF680B00BF680B00BF680B00BF680B0075
:10972C00BF680B00BF680B00BF680B00BF680B0065
:10973C00BF680B00BF680B00BF680B00BF680B0055
:10974C00BF680B00BF680B00BF680B00BF680B0045
:10975C00BF680B00BF680B00BF680B00BF680B0035
:10976C00BF680B00BF680B00BF680B00BF680B0025
:10977C00BF680B00BF680B00BF680B00BF680B0015
:10978C00BF680B00BF680B00BF680B00BF680B0005
:10979C00BF680B00BF680B00BF680B00BF680B00F5
:1097AC00BF680B00BF680B00BF680B00BF680B00E5
:1097BC00BF680B00BF680B00BF680B00BF680B00D5
:1097CC00BF680B00BF680B00BF680B00BF680B00C5
:1097DC00BF680B00BF680B00BF680B00BF680B00B5
:1097EC00BF680B00BF680B00BF680B00BF680B00A5
:1097FC00BF680B00BF680B00BF680B00BF680B0095
:10980C00BF680B00BF680B00BF680B00BF680B0084
:10981C00BF680B00BF680B00BF680B00BF680B0074
:10982C00BF680B00BF680B00BF680B00BF680B0064
:10983C00BF680B00BF680B00BF680B00BF680B0054
:10984C00BF680B000000000000000000036F0B005D
:10985C00F96E0B00EF6E0B00E56E0B00D96E0B0072
:10986C00CD6E0B001D7F0B00257F0B00C16E0B0016
:10987C00B96E0B00AF6E0B00A56E0B00557F0B0085
:10988C0000081018202830380000000000000000EC
:10989C006170700025592D256D2D25645425483A8D
:1098AC00254D3A2553257A0061736374696D650003
:1098BC00000000000000000055750B0045750B0002
:1098CC0047750B0000000000000000007F760B00C5
:1098DC00E7760B00BD760B002D720B00AF760B00FC
:1098EC0081760B0091760B00E1760B00A1760B00D4
:1098FC0079760B00000000000000000079770B0067
:10990C00E5770B00BD770B002D720B008D770B00EC
:10991C00A9770B009B770B00B7770B007B770B00BD
:10992C007F770B0000000000000000001D780B008A
:10993C0067780B003F780B001F780B0047780B0003
:10994C004F780B0057780B005F780B0077697269C2
:10995C006E670072656376206572726F72203D20AF
:10996C002564000000000000000000004D790B0091
:10997C0071790B005B7E0B007F790B0051790B002A
:10998C000000000000000000D5730B00ED730B000D
:10999C00C9780B00E3780B00F17C0B000D790B0000
:1099AC00677B0B0041790B00F97B0B00397A0B00BC
:1099BC00957B0B00A57D0B00357B0B0043790B00D1
:1099CC00F5780B0085790B00197A0B00000000006C
:1099DC0000000000BF7E0B00B57E0B00AB7E0B00C1
:1099EC00617E0B009F7E0B00937E0B001D7F0B0096
:1099FC00257F0B00877E0B007F7E0B00757E0B0096
:109A0C006B7E0B00557F0B00000000000000000077
:109A1C00DD7E0B00E77E0B00F17E0B00FB7E0B0066
:109A2C00057F0B00117F0B001D7F0B00257F0B00AA
:109A3C002D7F0B00397F0B00417F0B004B7F0B0000
:109A4C00557F0B0000537431395F53705F6D616B40
:109A5C00655F7368617265645F7461670000000024
:109A6C00AC9A0B00519A0B000C9B0B00809A0B00CC
:109A7C00309B0B004E31305F5F63787861626976A2
:109A8C003131375F5F636C6173735F747970655FDD
:109A9C00696E666F4500000000000000749A0B00B0
:109AAC00F9820B000D830B00A1840B00A1840B0029
:109ABC0077830B00B9820B005F830B0021830B00B3
:109ACC00EB820B000C9B0B00DC9A0B00749A0B00C6
